:020000020000FC
:100000000C9446000C9402000C9404000C9406001E
:100010000C9408000C940A000C940C000C940E0034
:100020000C9410000C9412000C9414000C94160004
:100030000C9418000C941A000C941C000C941E00D4
:100040000C94C0020C9422000C9424000C94260002
:100050000C9428000C942A000C942C000C942E0074
:100060000C9430000C9432000C9434000C94360044
:100070000C9438000C943A000C943C000C943E0014
:100080000C9440000C9442000C94440006E80DBF10
:1000900001E00EBF0E9424020E9423010E94EE0292
:1000A0000E942B020E9457000E940B03FDCF0AE022
:1000B0000093000103E00093010100E000930201BE
:1000C000009305010FEF009304010E94EA04112739
:1000D000552742E00E94F6012092060144274093F2
:1000E000030108953F935F936F937F935FB75F938F
:1000F00055276627772751B1332755FB30F9313023
:10010000F9F464E160938701332756FB30F931300D
:1001100059F564E160938801332757FB30F931309A
:10012000B9F564E1609389010C94D20031E030FBB1
:1001300020F90C94840030E0309387010C94840003
:10014000309187013A9530938701303079F39CF3F1
:100150000C94840031E030FB21F90C948C0030E0E9
:10016000309388010C948C00309188013A9530933B
:100170008801303079F39CF30C948C0031E030FB33
:1001800022F90C94D20030E0309389010C94D20013
:10019000309189013A9530938901303079F39CF39D
:1001A0000C94D2003327662753FB30F954FB31F906
:1001B00026FB60F927FB61F93617F9F401F030FBF3
:1001C00026F931FB27F95F915FBF7F916F915F91B6
:1001D0003F910895550F10F461E0560F550F10F43C
:1001E00061E0560F50938A01333011F00C94DF0018
:1001F00061E060FB24F90C94DF0050918A0156FB0A
:1002000060F957FB61F926FB70F927FB71F9671755
:1002100009F7569510F460E8560F569510F460E80B
:10022000560F50938A01333011F00C94DF0061E0D7
:1002300060FB23F90C94DF00C0E2DEE42197F1F7C4
:100240000A95D1F708950E946B010FEF0ABB04BB1A
:1002500001BB00E000938B01989408954F93CF93D6
:10026000DF935F936F937F930F921F921FB61F923E
:1002700040E04BBB42BB40918B0143954E3008F0B0
:100280004E5040938B01CCE8D1E0C40F60E0D61F04
:10029000588155BB542F573008F0575061E072E039
:1002A000552329F0679F602D5A950C94500150E01A
:1002B000473024F46BBB52BB0C9460015BBB62BB48
:1002C0001F901FBE1F900F907F916F915F91DF91E4
:1002D000CF914F9108954EE050E0CCE8D1E0F894F2
:1002E000442321F059934A950C9470017894089511
:1002F0003F930F924F935F936F93EF93FF9360E061
:10030000CCE8D1E02E9630E074E073957A95F1F068
:1003100050EF51235295313031F0503019F43A9367
:100320000C949B0131E0E6EEF4E00024E50FF01DB3
:100330005491F8945A936395623029F0643031F007
:1003400012950C948601102F0C9486017894FF91DD
:10035000EF916F915F914F910F903F910895093404
:100360002CF50A9540E0083020F0085043950C9495
:10037000B301473014F40C94C20119F443950C9462
:10038000C2014A9550E0CCE8D1E0C40FD51F4881A6
:10039000E6EFF4E0E00FF51F0491103029F400952A
:1003A000042308830C94D601042B088308955F93DB
:1003B0004F93CF93DF93552749E0CCE8D1E0C40FAA
:1003C000D51F0883DF91CF914F915F9108954F938F
:1003D000CF93DF93CCE8D1E02E96C10F10F04427E5
:1003E000DA950883DF91CF914F91089560E133242E
:1003F0002224441F551F221C331C2016310610F0E6
:10040000201A310A6A95A9F7441F551F4095509547
:1004100008951BE30E946A02502F1CE30E946A02A7
:10042000152F08951DE30E946A02502F1EE30E94BB
:100430006A02152F08951FE30E946A02502F10E4EC
:100440000E946A02152F089520EC31EE30938A0144
:1004500000E002B908950E9434020E9437020E940F
:1004600040020E944702089547E247BB089540E4D6
:100470004FBD4BE04EBD4427C5984ABD4BBD0895C6
:100480004DE54DB9C09A1FEF0E9406030895442719
:100490001AE10E94FD0244271CE10E94FD0244274C
:1004A0001DE10E94FD02089544274DBD4CBD143F3F
:1004B00020F4103031F4003021F40E943B020C94FF
:1004C000690254EF44E20E94F601C5984ABD5BBD43
:1004D000C59A0895C09810680E9406031FEF0E94F5
:1004E0000603C09A08957F06BB8FC6CDFD07FFC7E0
:1004F000F7FC79BEF9F180402010080402013F9317
:1005000033279894F89420FB30F9313030E030FBF9
:1005100020F978943F9108953F9333279894F89465
:1005200021FB30F9313030E030FB21F978943F91F4
:1005300008953F9333279894F89422FB30F9313093
:1005400030E030FB22F978943F9108953F933327B0
:100550009894F89423FB30F9313030E030FB23F9E4
:1005600078943F9108953F9333279894F89424FB0F
:1005700030F9313030E030FB24F978943F91089520
:100580000F930FB70F931F933F930E942E010E946A
:10059000720000919A01039500939A010330C1F40F
:1005A000002700939A0100919C01003071F4109192
:1005B0009D01103039F430919B01303031F03A9583
:1005C00000939B011A9510939D010A9500939C013D
:1005D0003F911F910F910FBF0F911895002702BFF8
:1005E00002E003BF07B7016007BF00919A0100272F
:1005F00000939A01989478940895C0981F770E9468
:100600000603142F0E940603C09A08951FB9779B12
:10061000FECF0FB108950E946B0131E0E4E9F8E0EC
:1006200005911591EF93FF933F930E94AF013F9186
:10063000FF91EF9149E0EC3AF40711F4E4E9F8E0B6
:100640000E948C0271F407E41FEFEF93FF933F9336
:100650000E94AF013F91FF91EF91363009F43327AB
:100660003395313031F5FF93EF93ECEAF9E041E057
:100670004A9543954917E9F755274A95E40FF51F21
:1006800005911CE00E94780108E80E94D7010DE75F
:100690001EEF0E94E701EF91FF919091000141E070
:1006A00051E068E27AE00E943104909300010C94DA
:1006B0000E04323011F590910101FF93EF93ECEAB3
:1006C000F9E041E04A9543954917E9F755274A95DE
:1006D000E40FF51F059115E00E94780100E80E94E3
:1006E000D701EF91FF9142E051E063E273E00E9495
:1006F0003104909301010C940E043330A1F400E80E
:100700000E94D7010091030115E00E94780106EFD5
:100710001FEF0E94E7010E94A6020E94B3020E94FE
:100720007F020C940E043430F9F490910201092FE9
:100730001DE00E947801F89400E80E94D7019030F3
:1007400021F401EF1CEF0E94E70100271DEF0E943A
:10075000E701789441E050E064E070E00E943104E9
:10076000909302010C940E04353061F500E80E946C
:10077000D701F89400271FEF0E94E7011DEF0E94A8
:10078000E70100EB1EEF0E94E70190910501903018
:1007900019F008EF0C94CD0301EF1CEF0E94E70164
:1007A00078940E94B30249F00E94A60219F00E94B8
:1007B0007F0221F490E00C94DE039FEF90930501FB
:1007C0000C940E0400E80E94D701002715E00E9457
:1007D0007801F8940DE71FEF0E94E70100271DEF55
:1007E0000E94E70190910401903019F008EF0C94F9
:1007F000FA0301EF1CEF0E94E70178940E94B30214
:1008000051F00E94A60221F00E947F0221F021F403
:1008100090E00C940C049FEF9093040105E00E947B
:100820001C0107E410E03F93EF93FF930E94AF0198
:10083000FF91EF913F910E94990211F00C941003E7
:10084000009105010F3F19F400E0009302010E949E
:100850006B0108E41FEF0E94AF010E94300408956D
:10086000089580E00E94A60231F48FEF951719F0E9
:10087000941B0C9449040E94B30231F48FEF961735
:1008800019F0940F0C9449040E947F0211F4972FE1
:100890008FEF089501FF02FF03FF04FF05FF06FF2E
:1008A00007FF08FF09FF0AFF0BFF0CFF0DFF0EFFFC
:1008B0000FFF10FF11FF12FF13FF14FF15FF16FFAC
:1008C00017FF18FF19FF1AFF1BFF1CFF1DFF1EFF5C
:1008D0001FFF20FF21FF22FF23FF24FF25FF26FF0C
:1008E00027FF28FF29FF2AFF2BFF2CFF2DFF2EFFBC
:1008F0002FFF30FF31FF32FF33FF34FF35FF36FF6C
:1009000037FF38FF39FF3AFF3BFF3CFF3DFF3EFF1B
:100910003FFF40FF41FF42FF43FF44FF45FF46FFCB
:1009200046004500440043004200410040003F00B3
:100930003E003D003C003B003A00390038003700E3
:1009400036003500340033003200310030002F0013
:100950002E002D002C002B002A0029002800270043
:1009600026002500240023002200210020001F0073
:100970001E001D001C001B001A00190018001700A3
:1009800016001500140013001200110010000F00D3
:100990000E000D000C000B000A0009000800070003
:1009A0000600050004000300020001000102030428
:1009B0000506070809101112131415161718192027
:1009C0002122232425262728293031323334353675
:1009D0003738394002E0089544244F9290DD4F901B
:1009E00041F402E539D04F928ADD4F9011F40EEEBA
:1009F00033D04F9291DD4F9041F40DE42DD04F92C2
:100A00008BDD4F9011F40EEE27D04F9292DD4F9078
:100A100041F403E521D04F928CDD4F9011F40EEE9E
:100A20001BD04F9293DD4F9041F403E615D04F92C7
:100A30008DDD4F9011F40EEE0FD04F9294DD4F905C
:100A400041F403E409D04F928EDD4F9011F40EEE85
:100A500003D00C94ED040895CEE9D1E010E0C40D6C
:080A6000D11F0883439408959F
:00000001FF
