:020000020000FC
:100000000C9446000C9402000C9404000C9406001E
:100010000C9408000C940A000C940C000C940E0034
:100020000C9410000C9412000C9414000C94160004
:100030000C9418000C941A000C941C000C941E00D4
:100040000C94E2020C9422000C9424000C942600E0
:100050000C9428000C942A000C942C000C942E0074
:100060000C9430000C9432000C9434000C94360044
:100070000C9438000C943A000C943C000C943E0014
:100080000C9440000C9442000C94440006E80DBF10
:1000900001E00EBF0E9446020E9423010E94170346
:1000A0000E944D020E9457000E943403FDCF0AE0D7
:1000B0000093000103E00093010100E000930201BE
:1000C000009305010FEF009304010E941F05112703
:1000D000552742E00E9409022092060144274093DE
:1000E000030108953F935F936F937F935FB75F938F
:1000F00055276627772751B1332755FB30F9313023
:10010000F9F460E560938701332756FB30F931300D
:1001100059F564E160938801332757FB30F931309A
:10012000B9F564E1609389010C94D20031E030FBB1
:1001300020F90C94840030E0309387010C94840003
:10014000309187013A9530938701303079F39CF3F1
:100150000C94840031E030FB21F90C948C0030E0E9
:10016000309388010C948C00309188013A9530933B
:100170008801303079F39CF30C948C0031E030FB33
:1001800022F90C94D20030E0309389010C94D20013
:10019000309189013A9530938901303079F39CF39D
:1001A0000C94D2003327662753FB30F954FB31F906
:1001B00026FB60F927FB61F93617F9F401F030FBF3
:1001C00026F931FB27F95F915FBF7F916F915F91B6
:1001D0003F910895550F10F461E0560F550F10F43C
:1001E00061E0560F50938A01333011F00C94DF0018
:1001F00061E060FB24F90C94DF0050918A0156FB0A
:1002000060F957FB61F926FB70F927FB71F9671755
:1002100009F7569510F460E8560F569510F460E80B
:10022000560F50938A01333011F00C94DF0061E0D7
:1002300060FB23F90C94DF00C0E2DEE42197F1F7C4
:100240000A95D1F708950E946B010FEF0ABB04BB1A
:1002500001BB00E000938B01989408954F93CF93D6
:10026000DF935F936F937F930F921F921FB61F923E
:1002700040E04BBB42BB40918B0143954E3008F0B0
:100280004E5040938B01CCE8D1E0C40F60E0D61F04
:10029000588155BB542F573008F0575061E072E039
:1002A000552329F0679F602D5A950C94500150E01A
:1002B000473024F46BBB52BB0C9460015BBB62BB48
:1002C0001F901FBE1F900F907F916F915F91DF91E4
:1002D000CF914F9108954EE050E0CCE8D1E0F894F2
:1002E000442321F059934A950C9470017894089511
:1002F0003F930F924F935F936F93EF93FF9360E061
:10030000CCE8D1E02E9630E074E073957A95F1F068
:1003100050EF51235295313031F0503019F43A9367
:100320000C949B0131E0EAE2F5E00024E50FF01DBA
:100330005491F8945A936395623029F0643031F007
:1003400012950C948601102F0C9486017894FF91DD
:10035000EF916F915F914F910F903F910895093404
:100360002CF50A9540E0083020F0085043950C9495
:10037000B301473014F40C94C20119F443950C9462
:10038000C2014A9550E0CCE8D1E0C40FD51F4881A6
:10039000EAE3F5E0E00FF51F0491103029F4009531
:1003A000042308830C94D601042B088308955F93DB
:1003B0004F93CF93DF93552749E0CCE8D1E0C40FAA
:1003C000D51F0883DF91CF914F915F9108954F938F
:1003D000CF93DF93CCE8D1E02E96C10F10F04427E5
:1003E000DA950883DF91CF914F9108953F93402F85
:1003F0003327F89435BB0E941C01042F78940E9487
:100400001C01042F103019F01A950C94F8013F913B
:10041000089560E133242224441F551F221C331CFD
:100420002016310610F0201A310A6A95A9F7441FE8
:10043000551F40955095089560E12224001F111F1B
:10044000221C241608F0241A6A95C1F7001F111FF8
:100450000095109508951BE30E948C02502F1CE319
:100460000E948C02152F08951DE30E948C02502FCC
:100470001EE30E948C02152F08951FE30E948C0238
:10048000502F10E40E948C02152F089520EC31EEBD
:1004900030938A0100E002B908950E9456020E943A
:1004A00059020E9462020E946902089547E247BB16
:1004B000089540E44FBD4BE04EBD4427C5984ABD6A
:1004C0004BBD08954DE54DB9C09A1FEF0E942F0313
:1004D000089544271AE10E94260344271CE10E9444
:1004E000260344271DE10E942603089544274DBD9D
:1004F0004CBD143F20F4103031F4003021F40E9440
:100500005D020C948B0254EF44E20E940902C598EC
:100510004ABD5BBDC59A0895C09810680E942F031C
:100520001FEF0E942F03C09A08957F06BB8FC6CD90
:10053000FD07FFC7F7FC79BEF9F1804020100804E1
:1005400002013F9333279894F89420FB30F931301F
:1005500030E030FB20F978943F9108953F933327A2
:100560009894F89421FB30F9313030E030FB21F9D8
:1005700078943F9108953F9333279894F89422FB01
:1005800030F9313030E030FB22F978943F91089512
:100590003F9333279894F89423FB30F9313030E0BF
:1005A00030FB23F978943F9108953F933327989433
:1005B000F89424FB30F9313030E030FB24F97894A2
:1005C0003F9108950F930FB70F931F933F934F934E
:1005D0000E942E010E94720000919A0103950093DF
:1005E0009A010732E9F4002700939A0100919D01D6
:1005F000003099F40AE04FEF4093A40110919C0160
:10060000103041F41AE030919B01303019F03A95E6
:1006100030939B011A9510939C010A9500939D01BC
:100620004F913F911F910F910FBF0F911895002788
:1006300002BF02E003BF07B7016007BF00919A0144
:10064000002700939A01989478940895C0981F7792
:100650000E942F03142F0E942F03C09A08951FB9E0
:10066000779BFECF0FB108950E946B0131E0EEEF52
:10067000F8E005911591EF93FF933F930E94AF012E
:100680003F91FF91EF914AE0E631F40711F4EEEF6C
:10069000F8E00E94AE0271F407E41FEFEF93FF93BE
:1006A0003F930E94AF013F91FF91EF91363009F4E3
:1006B00033273395313031F5FF93EF93E6E1FAE0DC
:1006C00045E04A9543954917E9F755274A95E40FC0
:1006D000F51F05911CE00E94780108E80E94D701EF
:1006E0000DE71EEF0E94E701EF91FF91909100014D
:1006F00041E055E068E27AE00E94660490930001D0
:100700000C943A04323011F590910101FF93EF936C
:10071000E6E1FAE041E04A9543954917E9F75527A4
:100720004A95E40FF51F059115E00E94780100E855
:100730000E94D701EF91FF9142E051E063E273E044
:100740000E946604909301010C943A043330A1F4A2
:1007500000E80E94D7010091030115E00E94780192
:1007600006EF1FEF0E94E7010E94C8020E94D50217
:100770000E94A1020C943A0431E00C943A04343003
:10078000F9F490910201092F1DE00E947801F8947C
:1007900000E80E94D701903021F401EF1CEF0E9485
:1007A000E70100271DEF0E94E701789441E050E047
:1007B00064E070E00E946604909302010C943A0495
:1007C000353061F500E80E94D701F89400271FEF4B
:1007D0000E94E7011DEF0E94E70100EB1EEF0E945F
:1007E000E70190910501903019F008EF0C94F9039E
:1007F00001EF1CEF0E94E70178940E94D50249F0B6
:100800000E94C80219F00E94A10221F490E00C9409
:100810000A049FEF909305010C943A0400E80E94AB
:10082000D701002715E00E947801F8940DE71FEF2B
:100830000E94E70100271DEF0E94E701909104014B
:10084000903019F008EF0C94260401EF1CEF0E9481
:10085000E70178940E94D50251F00E94C80221F06D
:100860000E94A10221F021F490E00C9438049FEF43
:100870009093040105E00E941C0107E410E03F93FF
:10088000EF93FF930E94AF01FF91EF913F910E9480
:10089000BB0211F00C943903009105010F3F19F4CC
:1008A00000E0009302010E946B0108E41FEF0E9428
:1008B000AF010E9421050E94BB020E94AE020E946D
:1008C000C8020E94D5020E94A102089580E00E9401
:1008D000C80231F48FEF951719F0941B0C947E0425
:1008E0000E94D50231F48FEF961719F0940F0C94F3
:1008F0007E040E94A10211F4972F8FEF089501FF4B
:1009000002FF03FF04FF05FF06FF07FF08FF09FFC3
:100910000AFF0BFF0CFF0DFF0EFF0FFF10FF11FF73
:1009200012FF13FF14FF15FF16FF17FF18FF19FF23
:100930001AFF1BFF1CFF1DFF1EFF1FFF20FF21FFD3
:1009400022FF23FF24FF25FF26FF27FF28FF29FF83
:100950002AFF2BFF2CFF2DFF2EFF2FFF30FF31FF33
:1009600032FF33FF34FF35FF36FF37FF38FF39FFE3
:100970003AFF3BFF3CFF3DFF3EFF3FFF40FF41FF93
:1009800042FF43FF44FF45FF46FF46004500440049
:1009900043004200410040003F003E003D003C005B
:1009A0003B003A003900380037003600350034008B
:1009B00033003200310030002F002E002D002C00BB
:1009C0002B002A00290028002700260025002400EB
:1009D00023002200210020001F001E001D001C001B
:1009E0001B001A001900180017001600150014004B
:1009F00013001200110010000F000E000D000C007B
:100A00000B000A00090008000700060005000400AA
:100A10000300020001000102030405060708091093
:100A20001112131415161718192021222324252614
:100A3000272829303132333435363738394002E00F
:100A4000089534E230939E01009101010A950595C5
:100A5000132F101B10939F01300F3093A001309182
:100A600002013093A20104E10E941C010E946B016B
:100A700000273DE30093A10100939C0100939D0199
:100A800030939B010093A4010093A3010E944905A8
:100A900008956091A4016F3F11F00C94BA0560E0D5
:100AA0006093A40110E0F8940E94FA050E943402B9
:100AB0000E94CB0540919F01431B40939F014091B1
:100AC0009E01431B40939E0151E0451724F40E9470
:100AD0005E060C94CA0556E45395451724F00E940F
:100AE0005E060C94CA054091A001431B4093A001EF
:100AF0001FEF0E94FA0578940091A101003099F44B
:100B00001091A00116342CF011E01093A5010C9463
:100B1000B70510919F01113008F061F516E41093AC
:100B2000A5010C94B7050230ACF40F9301E00E94CC
:100B3000D7010F910091A501013031F01091A00172
:100B40001634ACF40C94BA0510919F0101177CF493
:100B50000C94BA050F9305E00E94D7010F911091F4
:100B60009E01143239F40E9479060C94CA0503954B
:100B70000093A10100919B01003021F40E945E06C8
:100B80000C94CA0511270E9478010E94BB0211F043
:100B90000C94490508950F934F935F93EEE1FCE0A9
:100BA00000E801230F930591359110171CF011F007
:100BB0000C94D30500910001039F512D402D112766
:100BC00004E60E9409020091A3011F91103019F060
:100BD00002190C94F005020D043614F043950456E6
:100BE0000093A301342F103009F031955F914F919C
:100BF0000F91089540919F015091A001563408F043
:100C000056E45395451754F4042F4F935F930E9475
:100C1000AF015F914F9143950C9402060895BF2652
:100C2000C125C224C423C622C721C920CA1FCC1E85
:100C3000CE1DCF1CD11BD31AD419D618D817D9164C
:100C4000DB15DD14DE13E012E211E310E50FE70E11
:100C5000E80DEA0CEC0BED0AEF09F108F207F406D7
:100C6000F605F704F903FB02FC01FE000100020196
:100C700004020503070409050A060C070E080F09FC
:100C8000110A130B140C160D180E190F1B101D1141
:100C90001E122013221423152516271728182A1987
:100CA0002C1A2D1B2F1C311D321E341F36203721CC
:100CB00039223A233C243E253F267F270E946B01A0
:100CC00004EF11E00E94760210E100E50E94780135
:100CD00008E71FEF0E94E70109EF1CEF0E94E70100
:100CE00002E315E00E94F601002711270E94760218
:100CF000089500ED17E00E9476020E94B30610915D
:100D000003010117B4F40E946B0111270E947801BE
:100D100007E00E94D7010AEF0E941C010AEF0E941F
:100D20001C010AEF0E941C010AEF0E941C010C9496
:100D3000AE060093030115E00E947801F89407E0E5
:100D40000E94D70106EF1FEF0E94E701789400E8A8
:100D50000E94D70102E315E00E94F6010027112747
:100D60000E947602089580919B017091000160912C
:100D700001015091020140910501870F861B5030FF
:100D800029F483364CF081E00C94CC0674E0739522
:0C0D9000751B5FE1579F800D082F089530
:00000001FF
